{
  "_format": "hh-sol-artifact-1",
  "contractName": "TNConsumerExample",
  "sourceName": "contracts/TNConsumerExample.sol",
  "abi": [
    {
      "inputs": [
        {
          "internalType": "address",
          "name": "router",
          "type": "address"
        }
      ],
      "stateMutability": "nonpayable",
      "type": "constructor"
    },
    {
      "inputs": [],
      "name": "EmptyArgs",
      "type": "error"
    },
    {
      "inputs": [],
      "name": "EmptySecrets",
      "type": "error"
    },
    {
      "inputs": [],
      "name": "EmptySource",
      "type": "error"
    },
    {
      "inputs": [],
      "name": "NoInlineSecrets",
      "type": "error"
    },
    {
      "inputs": [],
      "name": "OnlyRouterCanFulfill",
      "type": "error"
    },
    {
      "inputs": [
        {
          "internalType": "bytes32",
          "name": "requestId",
          "type": "bytes32"
        }
      ],
      "name": "UnexpectedRequestID",
      "type": "error"
    },
    {
      "anonymous": false,
      "inputs": [
        {
          "indexed": false,
          "internalType": "bytes32",
          "name": "newDonId",
          "type": "bytes32"
        }
      ],
      "name": "DonIdUpdated",
      "type": "event"
    },
    {
      "anonymous": false,
      "inputs": [],
      "name": "EncryptedSecretsUrlUpdated",
      "type": "event"
    },
    {
      "anonymous": false,
      "inputs": [
        {
          "indexed": false,
          "internalType": "uint32",
          "name": "newGasLimit",
          "type": "uint32"
        }
      ],
      "name": "GasLimitUpdated",
      "type": "event"
    },
    {
      "anonymous": false,
      "inputs": [
        {
          "indexed": true,
          "internalType": "address",
          "name": "from",
          "type": "address"
        },
        {
          "indexed": true,
          "internalType": "address",
          "name": "to",
          "type": "address"
        }
      ],
      "name": "OwnershipTransferRequested",
      "type": "event"
    },
    {
      "anonymous": false,
      "inputs": [
        {
          "indexed": true,
          "internalType": "address",
          "name": "from",
          "type": "address"
        },
        {
          "indexed": true,
          "internalType": "address",
          "name": "to",
          "type": "address"
        }
      ],
      "name": "OwnershipTransferred",
      "type": "event"
    },
    {
      "anonymous": false,
      "inputs": [
        {
          "indexed": true,
          "internalType": "bytes32",
          "name": "id",
          "type": "bytes32"
        }
      ],
      "name": "RequestFulfilled",
      "type": "event"
    },
    {
      "anonymous": false,
      "inputs": [
        {
          "indexed": true,
          "internalType": "bytes32",
          "name": "id",
          "type": "bytes32"
        }
      ],
      "name": "RequestSent",
      "type": "event"
    },
    {
      "anonymous": false,
      "inputs": [
        {
          "indexed": true,
          "internalType": "bytes32",
          "name": "requestId",
          "type": "bytes32"
        },
        {
          "indexed": false,
          "internalType": "bytes",
          "name": "response",
          "type": "bytes"
        },
        {
          "indexed": false,
          "internalType": "bytes",
          "name": "err",
          "type": "bytes"
        }
      ],
      "name": "Response",
      "type": "event"
    },
    {
      "anonymous": false,
      "inputs": [
        {
          "indexed": false,
          "internalType": "string",
          "name": "newSource",
          "type": "string"
        }
      ],
      "name": "SourceUpdated",
      "type": "event"
    },
    {
      "anonymous": false,
      "inputs": [
        {
          "indexed": false,
          "internalType": "uint64",
          "name": "newSubscriptionId",
          "type": "uint64"
        }
      ],
      "name": "SubscriptionIdUpdated",
      "type": "event"
    },
    {
      "inputs": [],
      "name": "MAX_GAS_LIMIT",
      "outputs": [
        {
          "internalType": "uint32",
          "name": "",
          "type": "uint32"
        }
      ],
      "stateMutability": "view",
      "type": "function"
    },
    {
      "inputs": [],
      "name": "acceptOwnership",
      "outputs": [],
      "stateMutability": "nonpayable",
      "type": "function"
    },
    {
      "inputs": [],
      "name": "donID",
      "outputs": [
        {
          "internalType": "bytes32",
          "name": "",
          "type": "bytes32"
        }
      ],
      "stateMutability": "view",
      "type": "function"
    },
    {
      "inputs": [],
      "name": "encryptedSecretsUrl",
      "outputs": [
        {
          "internalType": "bytes",
          "name": "",
          "type": "bytes"
        }
      ],
      "stateMutability": "view",
      "type": "function"
    },
    {
      "inputs": [],
      "name": "getLatestError",
      "outputs": [
        {
          "internalType": "bytes",
          "name": "",
          "type": "bytes"
        }
      ],
      "stateMutability": "view",
      "type": "function"
    },
    {
      "inputs": [],
      "name": "getLatestResponse",
      "outputs": [
        {
          "internalType": "bytes",
          "name": "",
          "type": "bytes"
        }
      ],
      "stateMutability": "view",
      "type": "function"
    },
    {
      "inputs": [
        {
          "internalType": "bytes32",
          "name": "requestId",
          "type": "bytes32"
        },
        {
          "internalType": "bytes",
          "name": "response",
          "type": "bytes"
        },
        {
          "internalType": "bytes",
          "name": "err",
          "type": "bytes"
        }
      ],
      "name": "handleOracleFulfillment",
      "outputs": [],
      "stateMutability": "nonpayable",
      "type": "function"
    },
    {
      "inputs": [],
      "name": "owner",
      "outputs": [
        {
          "internalType": "address",
          "name": "",
          "type": "address"
        }
      ],
      "stateMutability": "view",
      "type": "function"
    },
    {
      "inputs": [
        {
          "internalType": "string",
          "name": "dataProviderAddress",
          "type": "string"
        },
        {
          "internalType": "string",
          "name": "streamId",
          "type": "string"
        },
        {
          "internalType": "string",
          "name": "date",
          "type": "string"
        }
      ],
      "name": "requestTNData",
      "outputs": [
        {
          "internalType": "bytes32",
          "name": "",
          "type": "bytes32"
        }
      ],
      "stateMutability": "nonpayable",
      "type": "function"
    },
    {
      "inputs": [],
      "name": "s_lastError",
      "outputs": [
        {
          "internalType": "bytes",
          "name": "",
          "type": "bytes"
        }
      ],
      "stateMutability": "view",
      "type": "function"
    },
    {
      "inputs": [],
      "name": "s_lastRequestId",
      "outputs": [
        {
          "internalType": "bytes32",
          "name": "",
          "type": "bytes32"
        }
      ],
      "stateMutability": "view",
      "type": "function"
    },
    {
      "inputs": [],
      "name": "s_lastResponse",
      "outputs": [
        {
          "internalType": "bytes",
          "name": "",
          "type": "bytes"
        }
      ],
      "stateMutability": "view",
      "type": "function"
    },
    {
      "inputs": [
        {
          "internalType": "bytes32",
          "name": "newDonId",
          "type": "bytes32"
        }
      ],
      "name": "setDonId",
      "outputs": [],
      "stateMutability": "nonpayable",
      "type": "function"
    },
    {
      "inputs": [
        {
          "internalType": "bytes",
          "name": "newEncryptedSecretsUrl",
          "type": "bytes"
        }
      ],
      "name": "setEncryptedSecretsUrl",
      "outputs": [],
      "stateMutability": "nonpayable",
      "type": "function"
    },
    {
      "inputs": [
        {
          "internalType": "uint32",
          "name": "newGasLimit",
          "type": "uint32"
        }
      ],
      "name": "setGasLimit",
      "outputs": [],
      "stateMutability": "nonpayable",
      "type": "function"
    },
    {
      "inputs": [
        {
          "internalType": "string",
          "name": "newSource",
          "type": "string"
        }
      ],
      "name": "setSource",
      "outputs": [],
      "stateMutability": "nonpayable",
      "type": "function"
    },
    {
      "inputs": [
        {
          "internalType": "uint64",
          "name": "newSubscriptionId",
          "type": "uint64"
        }
      ],
      "name": "setSubscriptionId",
      "outputs": [],
      "stateMutability": "nonpayable",
      "type": "function"
    },
    {
      "inputs": [],
      "name": "source",
      "outputs": [
        {
          "internalType": "string",
          "name": "",
          "type": "string"
        }
      ],
      "stateMutability": "view",
      "type": "function"
    },
    {
      "inputs": [],
      "name": "subscriptionId",
      "outputs": [
        {
          "internalType": "uint64",
          "name": "",
          "type": "uint64"
        }
      ],
      "stateMutability": "view",
      "type": "function"
    },
    {
      "inputs": [
        {
          "internalType": "address",
          "name": "to",
          "type": "address"
        }
      ],
      "name": "transferOwnership",
      "outputs": [],
      "stateMutability": "nonpayable",
      "type": "function"
    }
  ],
  "bytecode": "0x60a060405260405180602001604052806000815250600690816100229190610526565b5062030d406008806101000a81548163ffffffff021916908363ffffffff16021790555034801561005257600080fd5b506040516138e13803806138e18339818101604052810190610074919061065b565b33806000838073ffffffffffffffffffffffffffffffffffffffff1660808173ffffffffffffffffffffffffffffffffffffffff168152505050600073ffffffffffffffffffffffffffffffffffffffff168273ffffffffffffffffffffffffffffffffffffffff160361011d576040517f08c379a0000000000000000000000000000000000000000000000000000000008152600401610114906106e5565b60405180910390fd5b816000806101000a81548173ffffffffffffffffffffffffffffffffffffffff021916908373ffffffffffffffffffffffffffffffffffffffff160217905550600073ffffffffffffffffffffffffffffffffffffffff168173ffffffffffffffffffffffffffffffffffffffff16146101a1576101a0816101aa60201b60201c565b5b50505050610771565b3373ffffffffffffffffffffffffffffffffffffffff168173ffffffffffffffffffffffffffffffffffffffff1603610218576040517f08c379a000000000000000000000000000000000000000000000000000000000815260040161020f90610751565b60405180910390fd5b80600160006101000a81548173ffffffffffffffffffffffffffffffffffffffff021916908373ffffffffffffffffffffffffffffffffffffffff1602179055508073ffffffffffffffffffffffffffffffffffffffff1660008054906101000a900473ffffffffffffffffffffffffffffffffffffffff1673ffffffffffffffffffffffffffffffffffffffff167fed8889f560326eb138920d842192f0eb3dd22b4f139c87a2c57538e05bae127860405160405180910390a350565b600081519050919050565b7f4e487b7100000000000000000000000000000000000000000000000000000000600052604160045260246000fd5b7f4e487b7100000000000000000000000000000000000000000000000000000000600052602260045260246000fd5b6000600282049050600182168061035757607f821691505b60208210810361036a57610369610310565b5b50919050565b60008190508160005260206000209050919050565b60006020601f8301049050919050565b600082821b905092915050565b6000600883026103d27fffffffffffffffffffffffffffffffffffffffffffffffffffffffffffffffff82610395565b6103dc8683610395565b95508019841693508086168417925050509392505050565b6000819050919050565b6000819050919050565b600061042361041e610419846103f4565b6103fe565b6103f4565b9050919050565b6000819050919050565b61043d83610408565b6104516104498261042a565b8484546103a2565b825550505050565b600090565b610466610459565b610471818484610434565b505050565b5b818110156104955761048a60008261045e565b600181019050610477565b5050565b601f8211156104da576104ab81610370565b6104b484610385565b810160208510156104c3578190505b6104d76104cf85610385565b830182610476565b50505b505050565b600082821c905092915050565b60006104fd600019846008026104df565b1980831691505092915050565b600061051683836104ec565b9150826002028217905092915050565b61052f826102d6565b67ffffffffffffffff811115610548576105476102e1565b5b610552825461033f565b61055d828285610499565b600060209050601f831160018114610590576000841561057e578287015190505b610588858261050a565b8655506105f0565b601f19841661059e86610370565b60005b828110156105c6578489015182556001820191506020850194506020810190506105a1565b868310156105e357848901516105df601f8916826104ec565b8355505b6001600288020188555050505b505050505050565b600080fd5b600073ffffffffffffffffffffffffffffffffffffffff82169050919050565b6000610628826105fd565b9050919050565b6106388161061d565b811461064357600080fd5b50565b6000815190506106558161062f565b92915050565b600060208284031215610671576106706105f8565b5b600061067f84828501610646565b91505092915050565b600082825260208201905092915050565b7f43616e6e6f7420736574206f776e657220746f207a65726f0000000000000000600082015250565b60006106cf601883610688565b91506106da82610699565b602082019050919050565b600060208201905081810360008301526106fe816106c2565b9050919050565b7f43616e6e6f74207472616e7366657220746f2073656c66000000000000000000600082015250565b600061073b601783610688565b915061074682610705565b602082019050919050565b6000602082019050818103600083015261076a8161072e565b9050919050565b60805161314e610793600039600081816103950152611778015261314e6000f3fe608060405234801561001057600080fd5b506004361061012c5760003560e01c80638da5cb5b116100ad578063b1e2174911610071578063b1e21749146102e7578063e3f5aa5114610305578063e421c50b14610323578063ea7b4f7714610341578063f2fde38b1461035d5761012c565b80638da5cb5b1461024157806392232dcc1461025f57806399d254551461028f578063a115f8f5146102ab578063a814e34f146102c95761012c565b806352d84c62116100f457806352d84c62146101c357806367e828bf146101df5780636e74336b146101fd57806378ca5de71461021b57806379ba5097146102375761012c565b806309c1ba2e146101315780630ca761751461014f5780633944ea3a1461016b5780633fa72b69146101895780634b0795a8146101a5575b600080fd5b610139610379565b6040516101469190611f5a565b60405180910390f35b61016960048036038101906101649190612105565b610393565b005b610173610455565b604051610180919061220f565b60405180910390f35b6101a3600480360381019061019e9190612231565b6104e3565b005b6101ad61052a565b6040516101ba919061220f565b60405180910390f35b6101dd60048036038101906101d891906122b6565b6105b8565b005b6101e761066c565b6040516101f49190612338565b60405180910390f35b6102056106fa565b6040516102129190612369565b60405180910390f35b61023560048036038101906102309190612384565b610700565b005b61023f610749565b005b6102496108de565b60405161025691906123f2565b60405180910390f35b610279600480360381019061027491906124ae565b610907565b6040516102869190612369565b60405180910390f35b6102a960048036038101906102a49190612555565b610ac6565b005b6102b3610b18565b6040516102c0919061220f565b60405180910390f35b6102d1610baa565b6040516102de919061220f565b60405180910390f35b6102ef610c3c565b6040516102fc9190612369565b60405180910390f35b61030d610c42565b60405161031a91906125ad565b60405180910390f35b61032b610c49565b604051610338919061220f565b60405180910390f35b61035b600480360381019061035691906125f4565b610cd7565b005b6103776004803603810190610372919061264d565b610d42565b005b600860009054906101000a900467ffffffffffffffff1681565b7f000000000000000000000000000000000000000000000000000000000000000073ffffffffffffffffffffffffffffffffffffffff163373ffffffffffffffffffffffffffffffffffffffff1614610418576040517fc6829f8300000000000000000000000000000000000000000000000000000000815260040160405180910390fd5b610423838383610d56565b827f85e1543bf2f84fe80c6badbce3648c8539ad1df4d2b3d822938ca0538be727e660405160405180910390a2505050565b60038054610462906126a9565b80601f016020809104026020016040519081016040528092919081815260200182805461048e906126a9565b80156104db5780601f106104b0576101008083540402835291602001916104db565b820191906000526020600020905b8154815290600101906020018083116104be57829003601f168201915b505050505081565b6104eb610dfd565b80600590816104fa9190612890565b507f261e3078af07fc9f3beaa05336a14b4872e385ec4391d0d216d2bc083c633ae560405160405180910390a150565b60048054610537906126a9565b80601f0160208091040260200160405190810160405280929190818152602001828054610563906126a9565b80156105b05780601f10610585576101008083540402835291602001916105b0565b820191906000526020600020905b81548152906001019060200180831161059357829003601f168201915b505050505081565b6105c0610dfd565b6207a12063ffffffff168163ffffffff161115610612576040517f08c379a0000000000000000000000000000000000000000000000000000000008152600401610609906129d4565b60405180910390fd5b806008806101000a81548163ffffffff021916908363ffffffff1602179055507f501c51f34bf3d8589156f7fd37055e69375b40034d9f99365cb3290b5d983c918160405161066191906125ad565b60405180910390a150565b60068054610679906126a9565b80601f01602080910402602001604051908101604052809291908181526020018280546106a5906126a9565b80156106f25780601f106106c7576101008083540402835291602001916106f2565b820191906000526020600020905b8154815290600101906020018083116106d557829003601f168201915b505050505081565b60075481565b610708610dfd565b806007819055507f8636b239fb28228ed411937d379e0ac65fc0baaa856f6366d197e08c119feb078160405161073e9190612369565b60405180910390a150565b600160009054906101000a900473ffffffffffffffffffffffffffffffffffffffff1673ffffffffffffffffffffffffffffffffffffffff163373ffffffffffffffffffffffffffffffffffffffff16146107d9576040517f08c379a00000000000000000000000000000000000000000000000000000000081526004016107d090612a40565b60405180910390fd5b60008060009054906101000a900473ffffffffffffffffffffffffffffffffffffffff169050336000806101000a81548173ffffffffffffffffffffffffffffffffffffffff021916908373ffffffffffffffffffffffffffffffffffffffff1602179055506000600160006101000a81548173ffffffffffffffffffffffffffffffffffffffff021916908373ffffffffffffffffffffffffffffffffffffffff1602179055503373ffffffffffffffffffffffffffffffffffffffff168173ffffffffffffffffffffffffffffffffffffffff167f8be0079c531659141344cd1fd0a4f28419497f9722a3daafe3b4186f6b6457e060405160405180910390a350565b60008060009054906101000a900473ffffffffffffffffffffffffffffffffffffffff16905090565b6000610911610dfd565b6000600367ffffffffffffffff81111561092e5761092d611fda565b5b60405190808252806020026020018201604052801561096157816020015b606081526020019060019003908161094c5790505b509050848160008151811061097957610978612a60565b5b6020026020010181905250838160018151811061099957610998612a60565b5b602002602001018190525082816002815181106109b9576109b8612a60565b5b602002602001018190525060008067ffffffffffffffff8111156109e0576109df611fda565b5b604051908082528060200260200182016040528015610a1357816020015b60608152602001906001900390816109fe5790505b5090506000610ab060058054610a28906126a9565b80601f0160208091040260200160405190810160405280929190818152602001828054610a54906126a9565b8015610aa15780601f10610a7657610100808354040283529160200191610aa1565b820191906000526020600020905b815481529060010190602001808311610a8457829003601f168201915b50505050506000808686610e8d565b9050806002819055508093505050509392505050565b610ace610dfd565b8060069081610add9190612aea565b507f73989100303daec2fbf01e92f61095af6e662a5fb8d7d0b44224ed39e5d51c2681604051610b0d9190612338565b60405180910390a150565b606060048054610b27906126a9565b80601f0160208091040260200160405190810160405280929190818152602001828054610b53906126a9565b8015610ba05780601f10610b7557610100808354040283529160200191610ba0565b820191906000526020600020905b815481529060010190602001808311610b8357829003601f168201915b5050505050905090565b606060038054610bb9906126a9565b80601f0160208091040260200160405190810160405280929190818152602001828054610be5906126a9565b8015610c325780601f10610c0757610100808354040283529160200191610c32565b820191906000526020600020905b815481529060010190602001808311610c1557829003601f168201915b5050505050905090565b60025481565b6207a12081565b60058054610c56906126a9565b80601f0160208091040260200160405190810160405280929190818152602001828054610c82906126a9565b8015610ccf5780601f10610ca457610100808354040283529160200191610ccf565b820191906000526020600020905b815481529060010190602001808311610cb257829003601f168201915b505050505081565b610cdf610dfd565b80600860006101000a81548167ffffffffffffffff021916908367ffffffffffffffff1602179055507ffe1ef567ce884ef794b945e4334aba185ec62ce1f1d71ea9becb1a7d39d561d081604051610d379190611f5a565b60405180910390a150565b610d4a610dfd565b610d538161100d565b50565b8260025414610d9c57826040517fd068bf5b000000000000000000000000000000000000000000000000000000008152600401610d939190612369565b60405180910390fd5b8160039081610dab9190612890565b508060049081610dbb9190612890565b50827f7873807bf6ddc50401cd3d29bbe0decee23fd4d68d273f4b5eb83cded4d2f17260036004604051610df0929190612c40565b60405180910390a2505050565b60008054906101000a900473ffffffffffffffffffffffffffffffffffffffff1673ffffffffffffffffffffffffffffffffffffffff163373ffffffffffffffffffffffffffffffffffffffff1614610e8b576040517f08c379a0000000000000000000000000000000000000000000000000000000008152600401610e8290612cc3565b60405180910390fd5b565b6000610e97611e8b565b610f3460068054610ea7906126a9565b80601f0160208091040260200160405190810160405280929190818152602001828054610ed3906126a9565b8015610f205780601f10610ef557610100808354040283529160200191610f20565b820191906000526020600020905b815481529060010190602001808311610f0357829003601f168201915b50505050508261113990919063ffffffff16565b600087511115610f5657610f51878261114a90919063ffffffff16565b610f80565b60008567ffffffffffffffff161115610f7f57610f7e8686836111c39092919063ffffffff16565b5b5b600084511115610f9e57610f9d84826112d390919063ffffffff16565b5b600083511115610fbc57610fbb838261131b90919063ffffffff16565b5b610ff8610fc882611363565b600860009054906101000a900467ffffffffffffffff1660088054906101000a900463ffffffff16600754611773565b60028190555060025491505095945050505050565b3373ffffffffffffffffffffffffffffffffffffffff168173ffffffffffffffffffffffffffffffffffffffff160361107b576040517f08c379a000000000000000000000000000000000000000000000000000000000815260040161107290612d2f565b60405180910390fd5b80600160006101000a81548173ffffffffffffffffffffffffffffffffffffffff021916908373ffffffffffffffffffffffffffffffffffffffff1602179055508073ffffffffffffffffffffffffffffffffffffffff1660008054906101000a900473ffffffffffffffffffffffffffffffffffffffff1673ffffffffffffffffffffffffffffffffffffffff167fed8889f560326eb138920d842192f0eb3dd22b4f139c87a2c57538e05bae127860405160405180910390a350565b6111468260008084611856565b5050565b6000815103611185576040517fe889636f00000000000000000000000000000000000000000000000000000000815260040160405180910390fd5b60018260200190600281111561119e5761119d612d4f565b5b908160028111156111b2576111b1612d4f565b5b815250508082608001819052505050565b60006111d0610100611900565b905061121a6040518060400160405280600681526020017f736c6f74494400000000000000000000000000000000000000000000000000008152508261192790919063ffffffff16565b6112308360ff168261195090919063ffffffff16565b6112786040518060400160405280600781526020017f76657273696f6e000000000000000000000000000000000000000000000000008152508261192790919063ffffffff16565b61128b828261195090919063ffffffff16565b6002846020019060028111156112a4576112a3612d4f565b5b908160028111156112b8576112b7612d4f565b5b81525050806000015160000151846080018190525050505050565b600081510361130e576040517ffe936cb700000000000000000000000000000000000000000000000000000000815260040160405180910390fd5b808260a001819052505050565b6000815103611356576040517ffe936cb700000000000000000000000000000000000000000000000000000000815260040160405180910390fd5b808260c001819052505050565b60606000611372610100611900565b90506113bc6040518060400160405280600c81526020017f636f64654c6f636174696f6e00000000000000000000000000000000000000008152508261192790919063ffffffff16565b6113e5836000015160028111156113d6576113d5612d4f565b5b8261196090919063ffffffff16565b61142d6040518060400160405280600881526020017f6c616e67756167650000000000000000000000000000000000000000000000008152508261192790919063ffffffff16565b6114568360400151600081111561144757611446612d4f565b5b8261196090919063ffffffff16565b61149e6040518060400160405280600681526020017f736f7572636500000000000000000000000000000000000000000000000000008152508261192790919063ffffffff16565b6114b583606001518261192790919063ffffffff16565b60008360a0015151111561156b5761150b6040518060400160405280600481526020017f61726773000000000000000000000000000000000000000000000000000000008152508261192790919063ffffffff16565b611514816119b0565b60005b8360a0015151811015611560576115558460a00151828151811061153e5761153d612a60565b5b60200260200101518361192790919063ffffffff16565b806001019050611517565b5061156a816119d8565b5b600083608001515111156116ac576000600281111561158d5761158c612d4f565b5b836020015160028111156115a4576115a3612d4f565b5b036115db576040517fa80d31f700000000000000000000000000000000000000000000000000000000815260040160405180910390fd5b6116236040518060400160405280600f81526020017f736563726574734c6f636174696f6e00000000000000000000000000000000008152508261192790919063ffffffff16565b61164c8360200151600281111561163d5761163c612d4f565b5b8261196090919063ffffffff16565b6116946040518060400160405280600781526020017f73656372657473000000000000000000000000000000000000000000000000008152508261192790919063ffffffff16565b6116ab836080015182611a0090919063ffffffff16565b5b60008360c00151511115611762576117026040518060400160405280600981526020017f62797465734172677300000000000000000000000000000000000000000000008152508261192790919063ffffffff16565b61170b816119b0565b60005b8360c00151518110156117575761174c8460c00151828151811061173557611734612a60565b5b602002602001015183611a0090919063ffffffff16565b80600101905061170e565b50611761816119d8565b5b806000015160000151915050919050565b6000807f000000000000000000000000000000000000000000000000000000000000000073ffffffffffffffffffffffffffffffffffffffff1663461d27628688600188886040518663ffffffff1660e01b81526004016117d8959493929190612d9b565b6020604051808303816000875af11580156117f7573d6000803e3d6000fd5b505050506040513d601f19601f8201168201806040525081019061181b9190612e0a565b9050807f1131472297a800fee664d1d89cfa8f7676ff07189ecc53f80bbb5f4969099db860405160405180910390a280915050949350505050565b6000815103611891576040517f22ce3edd00000000000000000000000000000000000000000000000000000000815260040160405180910390fd5b82846000019060028111156118a9576118a8612d4f565b5b908160028111156118bd576118bc612d4f565b5b8152505081846040019060008111156118d9576118d8612d4f565b5b908160008111156118ed576118ec612d4f565b5b8152505080846060018190525050505050565b611908611efd565b611916816000015183611a29565b506000816020018181525050919050565b6119348260038351611aa2565b61194b818360000151611c4b90919063ffffffff16565b505050565b61195c82600083611aa2565b5050565b61198260026005600660ff16901b178360000151611c6790919063ffffffff16565b506119ac82826040516020016119989190612e46565b604051602081830303815290604052611a00565b5050565b6119bb816004611cd1565b6001816020018181516119ce9190612e90565b9150818152505050565b6119e3816007611cd1565b6001816020018181516119f69190612ec4565b9150818152505050565b611a0d8260028351611aa2565b611a24818360000151611c4b90919063ffffffff16565b505050565b611a31611f1d565b6000602083611a409190612f27565b14611a6c57602082611a529190612f27565b6020611a5e9190612ec4565b82611a699190612e90565b91505b818360200181815250506040518084526000815282810160200181811015611a9357600080fd5b80604052505082905092915050565b60178167ffffffffffffffff1611611add57611ad78160058460ff16901b60ff16178460000151611c6790919063ffffffff16565b50611c46565b60ff8167ffffffffffffffff1611611b3b57611b10601860058460ff16901b178460000151611c6790919063ffffffff16565b50611b358167ffffffffffffffff1660018560000151611cf79092919063ffffffff16565b50611c45565b61ffff8167ffffffffffffffff1611611b9a57611b6f601960058460ff16901b178460000151611c6790919063ffffffff16565b50611b948167ffffffffffffffff1660028560000151611cf79092919063ffffffff16565b50611c44565b63ffffffff8167ffffffffffffffff1611611bfb57611bd0601a60058460ff16901b178460000151611c6790919063ffffffff16565b50611bf58167ffffffffffffffff1660048560000151611cf79092919063ffffffff16565b50611c43565b611c1c601b60058460ff16901b178460000151611c6790919063ffffffff16565b50611c418167ffffffffffffffff1660088560000151611cf79092919063ffffffff16565b505b5b5b5b505050565b611c53611f1d565b611c5f83838451611d84565b905092915050565b611c6f611f1d565b600083600001515190506000600182611c889190612e90565b905084602001518210611cac57611cab85600283611ca69190612f58565b611e67565b5b84516020838201018581538151831115611cc4578282525b5050849250505092915050565b611cf2601f60058360ff16901b178360000151611c6790919063ffffffff16565b505050565b611cff611f1d565b6000846000015151905060008184611d179190612e90565b90508560200151811115611d3c57611d3b86600283611d369190612f58565b611e67565b5b6000600185610100611d4e91906130cd565b611d589190612ec4565b905086518281018783198251161781528151841115611d75578382525b50508693505050509392505050565b611d8c611f1d565b8251821115611d9a57600080fd5b6000846000015151905060008382611db29190612e90565b90508560200151811115611dd757611dd686600283611dd19190612f58565b611e67565b5b60008087518051856020830101935080851115611df2578482525b60208901925050505b60208610611e395780518252602082611e149190612e90565b9150602081611e239190612e90565b9050602086611e329190612ec4565b9550611dfb565b60006001876020036101000a0390508019825116818451168181178552505050879450505050509392505050565b600082600001519050611e7a8383611a29565b50611e858382611c4b565b50505050565b6040518060e0016040528060006002811115611eaa57611ea9612d4f565b5b815260200160006002811115611ec357611ec2612d4f565b5b8152602001600080811115611edb57611eda612d4f565b5b8152602001606081526020016060815260200160608152602001606081525090565b6040518060400160405280611f10611f1d565b8152602001600081525090565b604051806040016040528060608152602001600081525090565b600067ffffffffffffffff82169050919050565b611f5481611f37565b82525050565b6000602082019050611f6f6000830184611f4b565b92915050565b6000604051905090565b600080fd5b600080fd5b6000819050919050565b611f9c81611f89565b8114611fa757600080fd5b50565b600081359050611fb981611f93565b92915050565b600080fd5b600080fd5b6000601f19601f8301169050919050565b7f4e487b7100000000000000000000000000000000000000000000000000000000600052604160045260246000fd5b61201282611fc9565b810181811067ffffffffffffffff8211171561203157612030611fda565b5b80604052505050565b6000612044611f75565b90506120508282612009565b919050565b600067ffffffffffffffff8211156120705761206f611fda565b5b61207982611fc9565b9050602081019050919050565b82818337600083830152505050565b60006120a86120a384612055565b61203a565b9050828152602081018484840111156120c4576120c3611fc4565b5b6120cf848285612086565b509392505050565b600082601f8301126120ec576120eb611fbf565b5b81356120fc848260208601612095565b91505092915050565b60008060006060848603121561211e5761211d611f7f565b5b600061212c86828701611faa565b935050602084013567ffffffffffffffff81111561214d5761214c611f84565b5b612159868287016120d7565b925050604084013567ffffffffffffffff81111561217a57612179611f84565b5b612186868287016120d7565b9150509250925092565b600081519050919050565b600082825260208201905092915050565b60005b838110156121ca5780820151818401526020810190506121af565b60008484015250505050565b60006121e182612190565b6121eb818561219b565b93506121fb8185602086016121ac565b61220481611fc9565b840191505092915050565b6000602082019050818103600083015261222981846121d6565b905092915050565b60006020828403121561224757612246611f7f565b5b600082013567ffffffffffffffff81111561226557612264611f84565b5b612271848285016120d7565b91505092915050565b600063ffffffff82169050919050565b6122938161227a565b811461229e57600080fd5b50565b6000813590506122b08161228a565b92915050565b6000602082840312156122cc576122cb611f7f565b5b60006122da848285016122a1565b91505092915050565b600081519050919050565b600082825260208201905092915050565b600061230a826122e3565b61231481856122ee565b93506123248185602086016121ac565b61232d81611fc9565b840191505092915050565b6000602082019050818103600083015261235281846122ff565b905092915050565b61236381611f89565b82525050565b600060208201905061237e600083018461235a565b92915050565b60006020828403121561239a57612399611f7f565b5b60006123a884828501611faa565b91505092915050565b600073ffffffffffffffffffffffffffffffffffffffff82169050919050565b60006123dc826123b1565b9050919050565b6123ec816123d1565b82525050565b600060208201905061240760008301846123e3565b92915050565b600067ffffffffffffffff82111561242857612427611fda565b5b61243182611fc9565b9050602081019050919050565b600061245161244c8461240d565b61203a565b90508281526020810184848401111561246d5761246c611fc4565b5b612478848285612086565b509392505050565b600082601f83011261249557612494611fbf565b5b81356124a584826020860161243e565b91505092915050565b6000806000606084860312156124c7576124c6611f7f565b5b600084013567ffffffffffffffff8111156124e5576124e4611f84565b5b6124f186828701612480565b935050602084013567ffffffffffffffff81111561251257612511611f84565b5b61251e86828701612480565b925050604084013567ffffffffffffffff81111561253f5761253e611f84565b5b61254b86828701612480565b9150509250925092565b60006020828403121561256b5761256a611f7f565b5b600082013567ffffffffffffffff81111561258957612588611f84565b5b61259584828501612480565b91505092915050565b6125a78161227a565b82525050565b60006020820190506125c2600083018461259e565b92915050565b6125d181611f37565b81146125dc57600080fd5b50565b6000813590506125ee816125c8565b92915050565b60006020828403121561260a57612609611f7f565b5b6000612618848285016125df565b91505092915050565b61262a816123d1565b811461263557600080fd5b50565b60008135905061264781612621565b92915050565b60006020828403121561266357612662611f7f565b5b600061267184828501612638565b91505092915050565b7f4e487b7100000000000000000000000000000000000000000000000000000000600052602260045260246000fd5b600060028204905060018216806126c157607f821691505b6020821081036126d4576126d361267a565b5b50919050565b60008190508160005260206000209050919050565b60006020601f8301049050919050565b600082821b905092915050565b60006008830261273c7fffffffffffffffffffffffffffffffffffffffffffffffffffffffffffffffff826126ff565b61274686836126ff565b95508019841693508086168417925050509392505050565b6000819050919050565b6000819050919050565b600061278d6127886127838461275e565b612768565b61275e565b9050919050565b6000819050919050565b6127a783612772565b6127bb6127b382612794565b84845461270c565b825550505050565b600090565b6127d06127c3565b6127db81848461279e565b505050565b5b818110156127ff576127f46000826127c8565b6001810190506127e1565b5050565b601f82111561284457612815816126da565b61281e846126ef565b8101602085101561282d578190505b612841612839856126ef565b8301826127e0565b50505b505050565b600082821c905092915050565b600061286760001984600802612849565b1980831691505092915050565b60006128808383612856565b9150826002028217905092915050565b61289982612190565b67ffffffffffffffff8111156128b2576128b1611fda565b5b6128bc82546126a9565b6128c7828285612803565b600060209050601f8311600181146128fa57600084156128e8578287015190505b6128f28582612874565b86555061295a565b601f198416612908866126da565b60005b828110156129305784890151825560018201915060208501945060208101905061290b565b8683101561294d5784890151612949601f891682612856565b8355505b6001600288020188555050505b505050505050565b7f476173206c696d69742065786365656473206d6178696d756d20616c6c6f776560008201527f6400000000000000000000000000000000000000000000000000000000000000602082015250565b60006129be6021836122ee565b91506129c982612962565b604082019050919050565b600060208201905081810360008301526129ed816129b1565b9050919050565b7f4d7573742062652070726f706f736564206f776e657200000000000000000000600082015250565b6000612a2a6016836122ee565b9150612a35826129f4565b602082019050919050565b60006020820190508181036000830152612a5981612a1d565b9050919050565b7f4e487b7100000000000000000000000000000000000000000000000000000000600052603260045260246000fd5b60008190508160005260206000209050919050565b601f821115612ae557612ab681612a8f565b612abf846126ef565b81016020851015612ace578190505b612ae2612ada856126ef565b8301826127e0565b50505b505050565b612af3826122e3565b67ffffffffffffffff811115612b0c57612b0b611fda565b5b612b1682546126a9565b612b21828285612aa4565b600060209050601f831160018114612b545760008415612b42578287015190505b612b4c8582612874565b865550612bb4565b601f198416612b6286612a8f565b60005b82811015612b8a57848901518255600182019150602085019450602081019050612b65565b86831015612ba75784890151612ba3601f891682612856565b8355505b6001600288020188555050505b505050505050565b60008154612bc9816126a9565b612bd3818661219b565b94506001821660008114612bee5760018114612c0457612c37565b60ff198316865281151560200286019350612c37565b612c0d856126da565b60005b83811015612c2f57815481890152600182019150602081019050612c10565b808801955050505b50505092915050565b60006040820190508181036000830152612c5a8185612bbc565b90508181036020830152612c6e8184612bbc565b90509392505050565b7f4f6e6c792063616c6c61626c65206279206f776e657200000000000000000000600082015250565b6000612cad6016836122ee565b9150612cb882612c77565b602082019050919050565b60006020820190508181036000830152612cdc81612ca0565b9050919050565b7f43616e6e6f74207472616e7366657220746f2073656c66000000000000000000600082015250565b6000612d196017836122ee565b9150612d2482612ce3565b602082019050919050565b60006020820190508181036000830152612d4881612d0c565b9050919050565b7f4e487b7100000000000000000000000000000000000000000000000000000000600052602160045260246000fd5b600061ffff82169050919050565b612d9581612d7e565b82525050565b600060a082019050612db06000830188611f4b565b8181036020830152612dc281876121d6565b9050612dd16040830186612d8c565b612dde606083018561259e565b612deb608083018461235a565b9695505050505050565b600081519050612e0481611f93565b92915050565b600060208284031215612e2057612e1f611f7f565b5b6000612e2e84828501612df5565b91505092915050565b612e408161275e565b82525050565b6000602082019050612e5b6000830184612e37565b92915050565b7f4e487b7100000000000000000000000000000000000000000000000000000000600052601160045260246000fd5b6000612e9b8261275e565b9150612ea68361275e565b9250828201905080821115612ebe57612ebd612e61565b5b92915050565b6000612ecf8261275e565b9150612eda8361275e565b9250828203905081811115612ef257612ef1612e61565b5b92915050565b7f4e487b7100000000000000000000000000000000000000000000000000000000600052601260045260246000fd5b6000612f328261275e565b9150612f3d8361275e565b925082612f4d57612f4c612ef8565b5b828206905092915050565b6000612f638261275e565b9150612f6e8361275e565b9250828202612f7c8161275e565b91508282048414831517612f9357612f92612e61565b5b5092915050565b60008160011c9050919050565b6000808291508390505b6001851115612ff157808604811115612fcd57612fcc612e61565b5b6001851615612fdc5780820291505b8081029050612fea85612f9a565b9450612fb1565b94509492505050565b60008261300a57600190506130c6565b8161301857600090506130c6565b816001811461302e576002811461303857613067565b60019150506130c6565b60ff84111561304a57613049612e61565b5b8360020a91508482111561306157613060612e61565b5b506130c6565b5060208310610133831016604e8410600b841016171561309c5782820a90508381111561309757613096612e61565b5b6130c6565b6130a98484846001612fa7565b925090508184048111156130c0576130bf612e61565b5b81810290505b9392505050565b60006130d88261275e565b91506130e38361275e565b92506131107fffffffffffffffffffffffffffffffffffffffffffffffffffffffffffffffff8484612ffa565b90509291505056fea2646970667358221220035c2cdbf08c5ebf9b2078c610abc4e2b544865dcaca0c2a8143dcc9eac4438164736f6c634300081b0033",
  "linkReferences": {},
  "deployedLinkReferences": {}
}